:020000040000FA
:08000000803102288731F22F44
:100C6E0016302100970008007030210099009A017B
:100C7E0098010800640080010131890B422E003476
:100C8E002A009117111291101110111708002A0045
:100C9E0095171512951015101517080022008E12B3
:100CAE000E128D130D138C1208008B1021001513CC
:100CBE000030863178260B1608000B112100951294
:100CCE0095119514951015158B16080001302100FD
:100CDE009D0060309E009F019B019C019E17111389
:100CEE000800F2007208F0000030F10070082000D9
:100CFE00A0007108A10008008631E82686318631F1
:100D0E003B26863186313726863186316D268631F1
:100D1E0086314726863186314E26863186315C26CF
:100D2E008631863164260800F3007308F200F20D56
:100D3E00F20D21001D087206833972069D001D14E6
:100D4E000D30890BA82E000021009D149D18AD2E8C
:100D5E001C08F1001B08F0000800F501F6017008F0
:100D6E0071040319E32EF701F70AF11BC82E0130A7
:100D7E00F035F10D890BBF2E0130F4007408F70722
:100D8E00BC2E0130F535F60D890BC92E7108730294
:100D9E00031DD32E70087202031CDA2E7008F202A5
:100DAE007108F33B75140130F136F00C890BDB2E14
:100DBE000130F702031DC82E7608F1007508F00009
:100DCE00080022008C018D018E01173021008C004D
:100DDE0030308D00C3308E00CF3023008E00303087
:100DEE008D0023308C0024000C108C100C158C11EF
:100DFE008C150D128D120D138D130E108E100E11EB
:100E0E008E110E128E120E138E13210095132500C5
:100E1E008C018D018E0100308B1B0130F0008B1385
:100E2E0055303C008F00AA308F000F101008E039AB
:100E3E000238900055308F00AA308F000F14700CBE
:100E4E00031C8B1303188B170800863183268731FA
:100E5E008B170B17863155268731E8302000A200FC
:100E6E000330A300E830A4000330A500E830A6004C
:100E7E000330A700E830A8000330A900E830AA002C
:100E8E000330AB00E830AC000330AD00E830AE000C
:100E9E000330AF00E830B0000330B100E830B200EC
:100EAE000330B3007D080319342F42080319D42FE1
:100EBE00C2010430F8007808FC00043086319B260D
:100ECE0087317108FB007008FA00E8302000A2009C
:100EDE000330A300E830A4000330A500E830A600DC
:100EEE000330A700E830A8000330A900E830AA00BC
:100EFE000330AB00E830AC000330AD00E830AE009C
:100F0E000330AF00E830B0000330B1007B08B3000F
:100F1E007A08B2000A30F0000030F10032087A0789
:100F2E00F80033087B3DF9007808403EF2001F3090
:100F3E00793DF3008631B426873171082000B50063
:100F4E007008B40002307B02BD3003197A02031818
:100F5E00B22FC101C10A35083702031DB82F34085C
:100F6E0036020318BE2F3508B7003408B600053018
:100F7E00F8007808FC00053086319B268731710811
:100F8E00FB007008FA0002307B02CD3003197A02A2
:100F9E000318D42F2000BE01BE0A200041080319F9
:100FAE00342FC10122008D178E162000C30102308E
:100FBE004302031CDE2F22008D138E122000BD0172
:100FCE000B303D020318EE2FBF01BF0AE72FBF0102
:100FDE0022008E12342FFA01FB01FC01FD01343088
:100FEE008400003085001030863141262000873184
:020FFE002C2F96
:020000040001F9
:04000E00E4FFFFDE2E
:00000001FF
